:020000040000fa
:080000000002040000000000f2
:020000040000fa
:04000800fa020000f8
:020000040000fa
:04000c0000030000ed
:020000040000fa
:040010001c030000cd
:020000040000fa
:0400140006030000df
:020000040000fa
:040018000c030000d5
:020000040000fa
:04001c0012030000cb
:020000040000fa
:0400200020030000b9
:020000040000fa
:0400240018030000bd
:020000040000fa
:0400280018030000b9
:020000040000fa
:04002c0018030000b5
:020000040000fa
:0400300018030000b1
:020000040000fa
:0400340018030000ad
:020000040000fa
:0400380018030000a9
:020000040000fa
:04003c0018030000a5
:020000040000fa
:0400400018030000a1
:020000040000fa
:04004400180300009d
:020000040000fa
:040048001803000099
:020000040000fa
:04004c001803000095
:020000040000fa
:040050008a0300001f
:020000040000fa
:040054002c03000079
:020000040000fa
:04005800240300007d
:020000040000fa
:04005c001803000085
:020000040000fa
:040060001803000081
:020000040000fa
:04006400180300007d
:020000040000fa
:040068001803000079
:020000040000fa
:04006c001803000075
:020000040000fa
:040070001803000071
:020000040000fa
:04007400180300006d
:020000040000fa
:040078001803000069
:020000040000fa
:04007c001803000065
:020000040000fa
:040080001803000061
:020000040000fa
:04008400180300005d
:020000040000fa
:040088001803000059
:020000040000fa
:04008c001803000055
:020000040000fa
:040090001803000051
:020000040000fa
:04009400180300004d
:020000040000fa
:040098001803000049
:020000040000fa
:04009c001803000045
:020000040000fa
:0400a0001803000041
:020000040000fa
:0400a400180300003d
:020000040000fa
:0400a8001803000039
:020000040000fa
:0400ac0094030000b9
:020000040000fa
:0400b0001803000031
:020000040000fa
:0400b400180300002d
:020000040000fa
:0400b8001803000029
:020000040000fa
:0400bc001803000025
:020000040000fa
:0400c0001803000021
:020000040000fa
:0400c400180300001d
:020000040000fa
:0400c8001803000019
:020000040000fa
:0400cc001803000015
:020000040000fa
:0400d0001803000011
:020000040000fa
:0400d400180300000d
:020000040000fa
:0400d8001803000009
:020000040000fa
:0400dc001803000005
:020000040000fa
:0400e0001803000001
:020000040000fa
:0400e40018030000fd
:020000040000fa
:0400e80018030000f9
:020000040000fa
:0400ec0018030000f5
:020000040000fa
:0400f00018030000f1
:020000040000fa
:0400f40018030000ed
:020000040000fa
:0400f80018030000e9
:020000040000fa
:0400fc0018030000e5
:020000040000fa
:0401000018030000e0
:020000040000fa
:0401040018030000dc
:020000040000fa
:0401080018030000d8
:020000040000fa
:04010c0018030000d4
:020000040000fa
:0401100018030000d0
:020000040000fa
:0401140018030000cc
:020000040000fa
:0401180018030000c8
:020000040000fa
:04011c0018030000c4
:020000040000fa
:0401200018030000c0
:020000040000fa
:0401240018030000bc
:020000040000fa
:0401280018030000b8
:020000040000fa
:04012c0018030000b4
:020000040000fa
:0401300018030000b0
:020000040000fa
:0401340018030000ac
:020000040000fa
:0401380018030000a8
:020000040000fa
:04013c0018030000a4
:020000040000fa
:0401400018030000a0
:020000040000fa
:04014400180300009c
:020000040000fa
:040148001803000098
:020000040000fa
:04014c001803000094
:020000040000fa
:040150001803000090
:020000040000fa
:04015400180300008c
:020000040000fa
:040158001803000088
:020000040000fa
:04015c001803000084
:020000040000fa
:040160001803000080
:020000040000fa
:04016400180300007c
:020000040000fa
:040168001803000078
:020000040000fa
:04016c001803000074
:020000040000fa
:040170001803000070
:020000040000fa
:04017400180300006c
:020000040000fa
:040178001803000068
:020000040000fa
:04017c001803000064
:020000040000fa
:040180001803000060
:020000040000fa
:04018400180300005c
:020000040000fa
:040188001803000058
:020000040000fa
:04018c001803000054
:020000040000fa
:040190001803000050
:020000040000fa
:04019400180300004c
:020000040000fa
:040198001803000048
:020000040000fa
:04019c001803000044
:020000040000fa
:0401a0001803000040
:020000040000fa
:0401a400180300003c
:020000040000fa
:0401a8001803000038
:020000040000fa
:0401ac001803000034
:020000040000fa
:0401b0001803000030
:020000040000fa
:0401b400180300002c
:020000040000fa
:0401b8001803000028
:020000040000fa
:0401bc001803000024
:020000040000fa
:0401c0001803000020
:020000040000fa
:0401c400180300001c
:020000040000fa
:0401c8001803000018
:020000040000fa
:0401cc001803000014
:020000040000fa
:0401d0001803000010
:020000040000fa
:0401d400180300000c
:020000040000fa
:0401d8001803000008
:020000040000fa
:0401dc001803000004
:020000040000fa
:0401e0001803000000
:020000040000fa
:0401e40018030000fc
:020000040000fa
:0401e80018030000f8
:020000040000fa
:0401ec0018030000f4
:020000040000fa
:0401f00018030000f0
:020000040000fa
:0401f40018030000ec
:020000040000fa
:0401f80018030000e8
:020000040000fa
:0401fc0018030000e4
:020000040000fa
:0402000018030000df
:020000040000fa
:0402040018030000db
:020000040000fa
:0402080018030000d7
:020000040000fa
:04020c0018030000d3
:020000040000fa
:0402100018030000cf
:020000040000fa
:0402140018030000cb
:020000040000fa
:0402180018030000c7
:020000040000fa
:04021c0018030000c3
:020000040000fa
:0402200018030000bf
:020000040000fa
:0402240018030000bb
:020000040000fa
:0402280018030000b7
:020000040000fa
:04022c0018030000b3
:020000040000fa
:0402300018030000af
:020000040000fa
:0402340018030000ab
:020000040000fa
:0402380018030000a7
:020000040000fa
:04023c0018030000a3
:020000040000fa
:04024000180300009f
:020000040000fa
:04024400180300009b
:020000040000fa
:040248001803000097
:020000040000fa
:04024c001803000093
:020000040000fa
:04025000180300008f
:020000040000fa
:04025400180300008b
:020000040000fa
:040258001803000087
:020000040000fa
:04025c001803000083
:020000040000fa
:04026000180300007f
:020000040000fa
:04026400180300007b
:020000040000fa
:10040000ef0622000eff27000e018800000000000a
:10041000000020000000e000020032000001200087
:100420002002880014000700c40007000000e0005c
:1004300003003a004087240001002000020037003a
:100440000000200001002000810f70000100320038
:100450000f000700000020000000e0000200320052
:1004600000000200000000005249020000000000ed
:100470000040da000000fe00404b20000000e000d9
:1004800002003200002020009001880000000600d9
:10049000a1028800800478000000eb001f003700f4
:1004a000e284440054a0b4009905ba00e2844400f8
:1004b00054a0b4009906ba00e284440054a0b400e9
:1004c0000006eb00476fde00fd07b200ae018800ba
:1004d000636ce10003003a000ad801000000eb0061
:1004e0000e003700606ce10008003a00004deb00a0
:1004f0000a05e800020039003420ec000af0a000f0
:100500008b05e900f9ff3e00040037006168e10057
:10051000010032000086eb000b00070019c7ba008b
:100520000e04e0001905ba0003003a000a00e000da
:10053000dbff3a0000000600fe07b200ae028800b2
:100540008a047800f5ff37000cd0a300e20f4d00bd
:100550001c003b0089027800354dba000a05e8000e
:10056000020039003420ec000af0a0008b05e900fd
:100570000f003200254dba000a05e80002003900dc
:100580003420ec000af0a0008b05e90008003200de
:100590000c00e0000600320015cdba000a05e800a4
:1005a000020039003420ec000af0a0008b05e900bd
:1005b0008984e80054a0b4000b00e000e2ff3a0098
:1005c000000006009902ba00055d78008b05e9007d
:1005d000f7ff3200c82ade00055d78008b05e900d0
:1005e000f3ff32000c00e000f1ff320019ddba0029
:1005f000eeff37000000fa00c028a900ffff370017
:100600000000fa00c068a900ffff37000000fa00f0
:10061000c048a900ffff37000000fa00c088a90009
:10062000ffff37000000fa00c0a8a900ffff370055
:100630000000fa00ffff37000000fa00ffff37005c
:100640000000fa00ffff37000000fa000188a9004f
:100650000080fa0000400600809fbe00821f7800e4
:100660000200fa00200037000040eb00004f780045
:1006700010118000640060000000e0000300320000
:100680002242a90010c0b300004f78001011800072
:10069000680060000000e000030032002262a90050
:1006a00010c0b300004f78001e4078000004e00046
:1006b00013003a0000808000311180000141780071
:1006c0008100210080804000824878000000e8001e
:1006d0000080880010118000620060000000e000cf
:1006e000010032002222a900101180006100600088
:1006f0000000e000dcff3a000168a90001003700bb
:10070000000000000080fa004f0178004f00be009a
:10071000004006000000fa00342ea8000148a9009d
:100720000080fa00004006000000fa00640ea800f5
:100730000428a9000080fa0000400600000005001f
:1007400014002000bd0237000001be003f0007007a
:100750000470a70003f0a1006509b1001600320083
:100760000d0035006828e10006003500f0ff2f007d
:10077000f1ff27000300e00013003b000100280008
:100780000000050000004000818048008502e9006b
:10079000fcff3a0008003700f88f420002003c00de
:1007a0008000eb00000005008100d1000080d30034
:1007b0008502e800fcff3a000300e00002003b0075
:1007c00060001000e0801800000006000001be007c
:1007d0001e0007000470a70003f0a10003f8a300a7
:1007e00013003a006509b10010003200090035001d
:1007f0006928e10002003500010028000000050022
:1008000000004000818048008502e900fcff3a00ba
:1008100000000600f88f4200050035008100d1007d
:100820000080d3008502e800fcff3a0000000600cb
:100830008000eb00000005004f89de008201780097
:10084000990237006011b800a7023700c70ade001e
:10085000f107b200f50fb20008003200e1cf42000c
:10086000020032000170a00024000500810f70001a
:10087000010032000408050044000500810f7000eb
:1008800002003a00140005008502e9000000400063
:1008900081c04800fcff3b000170a000240005005f
:1008a000889fbe008a9fbe008c9fbe001b00200058
:1008b0000202be00058668000600280006066600e3
:1008c0004709de00f20fb200820032000243e80066
:1008d00080003200c729de00f30fb2007d00320035
:1008e0000343e8007b003200f107b2000170a00072
:1008f000f507b2000570a000c708dd004903de005f
:10090000868070004700dd00c72add004923de0035
:10091000868272004722dd00030551000403500067
:1009200085835800030031000000400081804800aa
:100930000a05e9008c1f78008a9fbe000400500061
:10094000858058000402420085824a000000400071
:10095000818048000005eb000004be006033b80051
:100960000406be000d48e1005600310011000900e8
:100970004dccd8000c01b8000d02b80084814100b4
:1009800060824a008283530003045c0084845c001c
:1009900060055d000a00e00025003a00800578004f
:1009a0000d40e10049003100880078000700780020
:1009b000110009004d88d8000c01b8000d02b800e4
:1009c0008481410060824a006003110083835b00e0
:1009d00004045c00e0845c000900e00021003a00af
:1009e0004f01be000300e0002b003200e301600075
:1009f000070673008c8171000100320064007000f2
:100a00004200de004e5edd000c007000c258de00c9
:100a100001e0a00083010700cf0178008180710010
:100a20004f06be004f05be004f04be00000006008a
:100a30008c8343000d044c00e0844c0060054d00a5
:100a40000000e9000a00e000d4ff32008c8343007c
:100a50000d044c00e0844c0060054d000000e900ee
:100a6000ceff37000c0343008d834b0060044c0025
:100a7000e0844c000000e9000900e000d8ff3200eb
:100a80000c0343008d834b0060044c00e0844c0059
:100a90000000e900d2ff37004200de004e5edd00bc
:100aa0000c007000c258de0001e0a000cf01780009
:100ab0000300e000daff320060001000e080180060
:100ac000d7ff3700f0ff2f00aaff3700f0ff2f00fd
:100ad000b9ff37000404be002f0107008706780025
:100ae0000004fd008104fd002b0107000783660060
:100af0000678a300030032000960a7000800be00ca
:100b00002c0037000d78a300020032000800be0060
:100b1000280037000778a30026003a0001f0a10062
:100b200009f0a1000668a30003003200f1ff2700ce
:100b3000f0ff2f00baff37000d68a300030032005a
:100b40000800be008c807000b5ff37000768a30066
:100b500007003a000648a30003003200f1ff270017
:100b6000f0ff2f00aeff37000d48a3000300320056
:100b70006000b8008c807000a9ff37000748a30010
:100b80000400320001f82700000020008c80700073
:100b9000a3ff3700760107000004fd008104fd007b
:100ba00002057800720107000802be008a01780081
:100bb00059ff37000160a000120220003280880037
:100bc00097ff37000100e000120032000500e0004e
:100bd00010003200889fbe008a9fbe008c9fbe001e
:100be0000006eb0001f8a3000300320060001000d3
:100bf000e08018000cf0a00005f8a300030032000c
:100c000060021200e0821a000cf0a2008005eb00e6
:100c100041ff37006000b800020005000383680050
:100c20000700280007036300470ade000480a100d4
:100c3000c71ade000580a100f70f20000720e100a1
:100c4000420032000728e10040003200889fbe00c9
:100c50008a9fbe008c1f7800f107b200f307b20034
:100c60000400e000640032000170a0000500e00014
:100c7000680032000370a00085054200eb07b10058
:100c80000204b8000302b8008484440060854a006e
:100c9000020ab800848444000a854a00030ab800a6
:100ca00004054500040033000804d0008984d20004
:100cb0000a85d2008b05e9006158e1003d0035004e
:100cc00002102000090161000308200089816100f1
:100cd000f70720008783640008867300c84cde0095
:100ce000c853dd00878474004855de000300e0002f
:100cf0000600320082037600040032008904e80016
:100d000060054d000a88a3000c003a00f70f200090
:100d10000758e10044003d000a70a100c75ddd00f6
:100d20000a8575008a007300090078004f06780074
:100d30004f05be004f04be00000006000a05d100aa
:100d40008984d3008b05e800f0ff3700881f780006
:100d50000604780090000700070278000001fd00fb
:100d60008101fd008c000700870278008503720076
:100d70000778a300050032000001fd008101fd009d
:100d80009f0007004f0478000000060085037200f2
:100d90000748a30003003200f0ff2f00f1ff2700f7
:100da000f8ff37000000200001f82700888070005d
:100db000f4ff3700880178004848dd008081710029
:100dc0004848de00c850dd0001007000c850de0059
:100dd000060478000b017800160007008880700078
:100de000d2ff37000500e0000500320017002000a8
:100df0003a0007009dff370081037000f9ff3a00b9
:100e0000860078004f0678004f05be004f04be00f4
:100e10000000050083037100f9ff32002700200065
:100e20002e00070094ff370001f82700868070002d
:100e3000f4ff37000100e0002600320061011100dc
:100e40007810e10023003c006022b8007010e1003f
:100e50000400350080027800010078008000eb007b
:100e6000700151000200e00009003400700311001d
:100e7000062add00822ade008603dd0087827200fa
:100e80000200de00860bdd00070070008208de0035
:100e900084817100f4ff2700048262008481710064
:100ea00004002800848262006102600005f0a60050
:100eb0000000060004827100070032000000e80014
:100ec000e0804800000006000002be006000b8009c
:100ed000efff37006000b80000000600889fbe00ea
:100ee0000004eb006138e10016003a000100e00068
:100ef00008003a00c800de004800dd00880020003d
:100f00000100e00003003a00c800de004800dd00f8
:100f1000680444008184cf00e98454000600340052
:100f20008908dd00f08314008703de0087807000ed
:100f30000900dd0009044400610214004f04be00f2
:100f4000000006000300e00008003a00c811de00bf
:100f50004811dd00880020000300e00003003a0093
:100f6000c811de004811dd00680444008384cf000e
:100f7000e9845400060034008919dd00f083140070
:100f80008713de00878171000911dd000904440028
:100f9000e1021400e9ff37002700200001f0a7005c
:100fa00017002000470bde00f60fb20004003200ed
:100fb0000643e8000a0032004702b30000000600c2
:100fc00001037800f607b2000603700002003a0041
:100fd0000703b300000006008702b300000006000c
:100fe00001037800f607b200060370000200320029
:100ff0000770a000000006000760a00000000600c7
:101000000478a300040032000578a3000300320036
:101010000168a30001003a000200be000160a000c8
:101020000000060081017000270032008002eb0002
:1010300001f8a3000300320060001000e0801800f7
:1010400015002000f40720000202420020003400b6
:10105000f7032000870360000604200000036300fc
:1010600002082000000161004700de00c909dd0020
:1010700000807100c708de000600e00008003200b2
:1010800087037100060032001000b0000180b0003c
:101090000188a30002003200c108de000402e8005b
:1010a000f107b200f30f20000320e10003003d0030
:1010b0004722dd00810072002900370001f8270077
:1010c0000000eb00260037006000b80000000600ba
:1010d000680212007f20e100020034006000b800c6
:1010e0001f0037006011b8007020e10004003500d7
:1010f00080017800010078008000eb00700252004f
:101100000400e00009003400f00312000719dd00bc
:101110008419de000703dd00868171000400de0013
:10112000070bdd00060070008408de00f7ff2700d3
:1011300083836300870371000600280003036300b4
:10114000070032000700e00003003a006101600080
:1011500002817300020032001000b0000180b00074
:101160000500a6000000060001f0a0000000060037
:101170004f0ade004709de00f107b200f20fb200ad
:101180000b003200f207b1000170a000c708dd00bb
:10119000c901de00838070004700dd000400a60066
:1011a0000000060060001000e0801800000006004b
:1011b000810f700001003a00000006008182cf001c
:1011c0000500e00010003e008082cf00ee82420069
:1011d0007028e1000400390007003e00800078001c
:1011e0000000eb000e003700708312008600de0066
:1011f0000500dd000a003700708352008600dd0024
:101200000000eb0006003700e28252008508dd0096
:10121000708312000603de00868070000500dd008a
:101220007507b0000501ea000400a60000000600f2
:1012300060001000e080180000000600889fbe00db
:101240008a9fbe00841f78007c0007004f00780052
:1012500011003300f0ff2f00838f6c0006003b006d
:10126000040565000a00a7000800370009f0a60081
:101270001000200008003700820f5400838f5c00ac
:10128000030039001000200001003e000000200093
:1012900009f0a7000000ea004f05be004f04be00a1
:1012a0000000e00000000600881f780003047800ba
:1012b0000300e00007003d0060001000e08018001f
:1012c00060011900e081190002003b0001f02d00cf
:1012d000030037000400070008f0a70001f0a00099
:1012e0004f04780000000600889fbe008a9fbe0061
:1012f0000082700004027100048271002600320036
:101300000004be000200be006011b8006b0920009e
:10131000950220000182cf000a0039000541b1008a
:101320000082cf00070039000541b1000982cf00db
:10133000040039000541b1000882cf0001003900e6
:101340000541b10005425200120032000a003b0084
:1013500082817100610164008100d1000080d300ae
:101360008984d3000884d3008b05e8000442e80098
:10137000f7ff3a00070037000804440089844c0056
:1013800000004800818048008b05e9000442e90024
:10139000f9ff3a00030007004f05be004f04be00ee
:1013a0000000060081002000618055000b003d0018
:1013b0000b00200061fe2f000100e1001d00340041
:1013c00082817100610164008904d1000884d30026
:1013d0000000e800faff3a0071002000610064009c
:1013e0000300700002006000090032006104440044
:1013f000e0844c000988a500050032008b05e80058
:101400006808e10002003a008904d1000884d30092
:10141000f20f20000258e10005003d00c75ddd002d
:10142000f907b20089807500080078000000060006
:101430000bf827008b007800000005000004be00b8
:1014400002fd07000003be000405be000200be004e
:10145000fefc0700844f7500000006000000fa0043
:101460004fb99700e88157004b0407000080fa004d
:1014700000000600a001370080007800040037005b
:101480003104e00002003a000000510000000600b4
:10149000010178000108a300f9ff3a0081017800fa
:1014a00031017800f4ef2f00020242000281ea00cd
:1014b000020162000408280004016100f7ff320005
:1014c00083007800010178003104e000fdff3a005c
:1014d0000000510000000600114290000482fb0051
:1014e0009180fb00c808dd00048270008000780055
:1014f000d181fb001081fb004811dd000301710068
:10150000030037004811dd001180fb00020170006c
:10151000010078003104e00004003200840f510023
:10152000f8ff3a000000e900000006000000050096
:10153000114390008683fb00060020001181fb0010
:101540008001eb00c811dd000200200002037300df
:1015500083837300214190004811dd008001eb007e
:1015600002037300838373008080e80010419000c1
:101570008281fb00020020001082fb008002eb0051
:10158000c822dd0004002000040171008581710083
:101590001182fb004822dd008002eb000401710093
:1015a00085817100080037001182fb008002eb008a
:1015b00004027100858271004829dd00c821de0027
:1015c000830171004821dd00010078003104e00052
:1015d00005003200860f5100878f5900f2ff3a0054
:1015e0000080e9000000060000000500889fbe00a2
:1015f000314290000482fb008002eb000101780080
:101600003283fb008003eb00c833dd0006002000be
:1016100006037200878372001281fb008001eb00d9
:10162000c011dd00020020000203730083837300f9
:10163000214190004811dd008001eb00020373009e
:1016400083837300e30040001182fb008002eb0003
:10165000800178003384fb008004eb00c844dd0087
:101660000800200008047200898472001381fb00c6
:101670008001eb00c012dd000400200004017400b2
:1016800085817400204290004822dd008002eb003a
:1016900006003700481add00c812de00850272001d
:1016a0004812dd001181fb008001eb000201720095
:1016b00083817200010078003104e00005003200ef
:1016c000860f5100878f5900f2ff3a0063005000e7
:1016d000010037000000eb004f04be0000000600d0
:1016e0008f22b000889fbe008a9fbe008c9fbe00e4
:1016f0008e1f78000004780081057800c0dc2f0080
:101700000f0040000f0009000018eb000002b100bc
:101710000b017800880078008004eb000e00370091
:101720000080fb00c401de00838141006f02600085
:1017300015002000042add00c5dc2f008f82420046
:1017400083814200930972008904e8000000400090
:101750004021b10089377800324078000004e00071
:1017600005003a001a0020000a0078000001eb0092
:101770008081eb001b0037003104e000e8ff3a00f5
:10178000a70037000382450000024200944278001f
:10179000018245001442780084cf520005003a00cf
:1017a0008a0f50000c0032000000e8008200780030
:1017b0000b00370084cf5200020036000385500032
:1017c000060037008200e800820178001a0020003d
:1017d0000a007800020037000005780010002000a1
:1017e0000101780082004000898f5000e5ff390038
:1017f00011002000010078000002eb008086eb0061
:10180000180037008d824500808242001543780021
:101810008282450095427800854f530005003a00ca
:10182000810f50000c0032000000e8000401780035
:101830000b003700854f5300020031008d0051002e
:10184000060037000401e80084067800110020003b
:1018500001007800020037008000780010002000ae
:101860000202780004014000890f5100e5ff3900b1
:101870000d01e8000300e800800f5100020036006f
:101880000105780001003700830678000d02e800aa
:101890008a804500040178000b00780084bf9f0017
:1018a0007b0507000fba97000000e0000800320037
:1018b0000905e9000d0555008d0f550001003100a7
:1018c0000d0578000a05e8008001eb0001003700f3
:1018d0008a815400080778000006eb0008005700d2
:1018e000890f50001400310089027800f503b3001d
:1018f000050178008000eb000e007800e3b79f0040
:1019000084bf9f00f5b79f0032050700efb1970035
:101910000fba9700ffb297000000e0000500320008
:1019200088005000898f50003d0039000007780082
:1019300001003700050747008900440071f897004f
:101940000080fb006f016000160020000233dd0004
:101950004401de00020141004223b100ef027900a0
:10196000050163000d003200000040004021b1007d
:101970006f007800008054000a0032000300e0008d
:10198000160032000c00e000140032008a0f5000f4
:10199000120031000a805400100037000104780062
:1019a000cdff37000c007800840f56000300310093
:1019b00004007800010037000000e8008080450046
:1019c000914078000104e00006003200000144006c
:1019d00092cf5000f8ff32000d0050000004440088
:1019e000bdff37000d0078008000e8008c8f5000ac
:1019f0000900360000814500800044000000e90035
:101a000012417800914f5100f7ff32000a04440060
:101a100003067800b1ff37000800780001003700a6
:101a20000000eb004f0778004f06be004f05be00d8
:101a30004f04be00ef1fb100af02b100000006006e
:101a4000881f780001047800984078000104e000c5
:101a5000260032008100fb00d80f07000000e000e4
:101a600022003200984090000104e0001f00320084
:101a7000904090000104e0001b003200a84090005c
:101a80000104e00003003a008800780092fe07009d
:101a900016003700a04090000104e0001200320060
:101aa000b84090000104e00003003a00880078008c
:101ab0009ffe07000d003700b04090000104e000d9
:101ac00009003200c84090000104e00003003a0021
:101ad00088007800c5fe0700040037008800780001
:101ae000fffe0700010037000000eb004f04780004
:101af00000000600000006008f04b000889fbe00b2
:101b00008a9fbe008c9fbe008e1f7800809f9f0022
:101b1000f19f9f00c3779f0001007800b00078001c
:101b2000e1a79f0010007800d0b79f00ff999700b1
:101b3000a3019000d3a79f007f9a970044029000d2
:101b4000f4979f00ff9a9700b50690001204780062
:101b50009204900022059000b20590006022b80027
:101b60006033b8000800be000a01be00df100700a5
:101b70000000e00003003d000bf0a200d0c2b30063
:101b8000040037006fa397000628a3000800320066
:101b9000b0c2b300804e7800dfa397008703e9004e
:101ba000c7af9f0010002000f0a79f000f00370074
:101bb000efa097000138a3000800320000c2b30074
:101bc000804e78005fa197000201e900c2af9f003c
:101bd00013002000f3a79f00040037005fa29700c6
:101be000c4af9f008002eb00f5a79f000800be0075
:101bf0000a01be00bfff0700f4ff2f00f5ff2f0012
:101c0000f6ff2f00f7ff27000402600085826000c6
:101c100006036100878361006000b80002002000b5
:101c200003ff27000020e10001a8e10002b0e1006d
:101c300003b8e10010003a004f7397008600fb00e4
:101c40001104b100ffa3970007804600f98f5000f0
:101c500002003e00a105220001003700e10522003c
:101c6000bb0f0700e005220003fe0700ffa097005e
:101c700001014000140037000020e10001a8e1004c
:101c800002b0e10003b8e100120036004f71970086
:101c90008200fb001104b100ffa197000380460001
:101ca000f98f500002003e0021062200010037009b
:101cb00061062200a60f070060062200eefd070065
:101cc0007fa29700040140006fa29700dfa1970058
:101cd0001d0237006022b8006033b8000800be0063
:101ce0000a01be00811007000000e0006800320019
:101cf0006000b8000200200003ff230080af9f00b7
:101d000091af9f00a2af9f00b3af9f000007eb0011
:101d10000802be000a03be00d4af9f00e5af9f00db
:101d2000f6af9f0087b79f00070037000e07e80057
:101d30000800be000a01be0080af9f0091af9f0067
:101d4000a2af9f00b3af9f006022b8000600200042
:101d5000470224000fa897009fa897002fa997007b
:101d6000bfa99700131207000004be000205be00c1
:101d70000002be000203be005fa89700efa8970014
:101d80007fa997008fb19700581007000000e0006e
:101d9000e6ff3d000006eb000fac97009fac9700fc
:101da0002fad9700bfad97002500370040ed2f0005
:101db000800f570019003d000c00e00016003a00ab
:101dc0006022b80006002000073524005fa89700b5
:101dd000efa897007fa997008fb19700f511070032
:101de0000002be000203be00d4af9f00e5af9f001b
:101df000f6af9f0087b79f006022b8000600200062
:101e0000073524000800be000a01be00e9110700e2
:101e10000004be000205be001c0020006022b800c5
:101e200006002000470224000800be000a01be0090
:101e3000311107000004be000205be000e07e900d4
:101e40000802be000a03be005fa89700efa8970033
:101e50007fa997008fb19700241007000000e000d1
:101e6000d2ff35000800be000a01be0080af9f000f
:101e700091af9f00a2af9f00b3af9f005fac9700f0
:101e8000efac97007fad97008fb597000800370043
:101e90006022b8000600200007ff230084af9f00e7
:101ea00095af9f00a6af9f00b7af9f000007eb0064
:101eb000cf7297000500fb002c0f0700d0779f0022
:101ec0005fb39700600020000600e00001003500cd
:101ed0005fb0970071c6b300df73970081cf5300e6
:101ee0000a003a00dfb097000100e0009f013200d5
:101ef0009f0137008e0f5000a3013c00d0af9f0020
:101f000052c6b30082cf9f001e003700df719700da
:101f100083cf9f000200370064c6b30084cf9f00c8
:101f20000000e800d0af9f0060c6b3008fca9700e2
:101f300080cf520013003a000e00e00008003d0080
:101f40006000b8000200200003ff230080af9f0064
:101f500091af9f00a2af9f00b3af9f000007eb00bf
:101f600061c6b30081cf9f0070c6b3005f71970058
:101f7000804f510003003200dfa997008e8141009d
:101f8000d3af9f000faa97009faa97002fab97008f
:101f9000bfab970094b79f00a5b79f00b6b79f004f
:101fa000c7b79f000800be000a01be00d0b79f005f
:101fb000e1b79f00f2b79f0083bf9f000006eb00d0
:101fc0000802be000a03be00b49f9f00c59f9f0089
:101fd000d69f9f00e79f9f00310037001fb29700f8
:101fe000afb297003fb39700cfb397005fb09700b1
:101ff000efb097007fb197008fb99700be10070030
:10200000fb1407000004be000205be00f40f070029
:102010008002780085a79f001fb29700afb297009b
:102020003fb39700cfb397000800be000a01be007f
:10203000601107005fb29700efb297007fb397007f
:102040008fbb97005b1007000002be000203be00ba
:1020500007f0a200d4b79f00e5b79f00f6b79f0036
:1020600087bf9f006022b8000600200047022400be
:102070001fb09700afb097003fb19700cfb1970066
:102080009d1007000002be000203be0094b79f002f
:10209000a5b79f00b6b79f00c7b79f000c06e80022
:1020a000dfaa9700850f5600ccff35003f9c9700b4
:1020b000cf9c97005f9d9700ef9d97006022b8002e
:1020c00006002000470124001fb09700afb0970022
:1020d0003fb19700cfb19700361107000002be0054
:1020e0000203be0094b79f00a5b79f00b6b79f003c
:1020f000c7b79f005fb09700efb097007fb1970020
:102100008fb99700790f07000000e0000f0035003d
:102110001fb29700afb297003fb39700cfb39700bd
:102120005fb09700efb097007fb197008fb997002d
:102130006e0f07000000e00011003a008fa2970028
:102140000508a300080032000d0037006000b80049
:102150006011b80090b79f00a1b79f00b2b79f0071
:10216000c3b79f00060037006022b8006033b80094
:1021700094b79f00a5b79f00b6b79f00c7b79f0051
:102180001fb29700afb297003fb39700cfb397004d
:102190000800be000a01be000c1007000002be00cd
:1021a0000203be0084a79f0095a79f00a6a79f00db
:1021b000b7a79f0050c6b3008fca970080cf5200c8
:1021c00003003a000003eb00d6b79f000100370080
:1021d000deb79f007fa697000000eb0090b79f003e
:1021e000909f9f00b09f9f008e007800e1979f0016
:1021f000670037000faa97009faa97002fab9700a0
:10220000bfab97000fa097009fa097002fa197004a
:10221000bfa1970038100700751407000004be0026
:102220000205be006e0f070000017800efa19700c5
:102230000348a3000c003a000200e0000a003a0044
:1022400070c6b3005f729700804f520006003a00dc
:10225000dfb297000500e00003003d001fb39700c8
:102260000607e800210037009f9b97000700e00069
:102270000c003a005fb097000000e00009003d004c
:102280008c804600e0c2b300804878000c06e8006d
:10229000cfa897008100e900c1af9f001300200084
:1022a000939f9f008c8046001fb797000300370064
:1022b00000c3b300805878000e07e9000e00e0006c
:1022c000fbff3a001fb29700040646000c80460050
:1022d00005c3b300054841000c06e8000480ea008d
:1022e0004fab970000034300c6af9f000faa9700b3
:1022f0009faa97002fab9700bfab97000800be00c6
:102300000a01be00ab1007000fa297009fa2970022
:102310002fa39700bfa39700a60f07000002be00df
:102320000203be0007f0a20084a79f0095a79f00ac
:10233000a6a79f00b7a79f006022b8000600200054
:10234000470224000fa897009fa897002fa9970085
:10235000bfa99700e80f07000002be000203be00fd
:1023600084af9f0095af9f00a6af9f00b7af9f00bf
:10237000dfb297008502e900d5b79f003f9b970029
:102380000603e800b69f9f008e03780097b79f0072
:102390003f989700dfa89700810f500005003d008f
:1023a0007f9997004200900065005000800f560012
:1023b00090ff39006f9797009f9997000300e00006
:1023c00007003a006fa297000448a30004003200ff
:1023d0000c804600e1c2b300014878000c06e8001a
:1023e0000c8046000048eb0051c6b3008fca97002e
:1023f00081cf520036003a007f9397008600e900b3
:10240000018146000049eb008001eb000e00e00076
:1024100002003d000e07ea00130020002200200009
:1024200081037800cfaa9700000478000b003700e2
:102430008103780007834600a400200011000900f2
:102440000407d800010278000007780000c3b30039
:10245000004b42000201e9008502e9008700e90023
:102460000e00e000f2ff3a000200e000f0ff3c0046
:10247000c5af9f000800780001824600b2c2b300d9
:102480000300e00001003200d2c2b300024a78002b
:102490000101e90082804600cf7197000302fb0032
:1024a0001404b10053c6b300f90f520001003e00fe
:1024b00053c4b300834878004faa97000482e90010
:1024c000c4af9f00820f560001003100a00d07002d
:1024d000efa2970063806200e20f500015003a00ff
:1024e0004fab97000600e000120034000d007800aa
:1024f000e1fb070006003700cfab9700878046005e
:102500008080400000814600924878000000e90089
:10251000ffa09700810f5000f7ff310001804600b7
:102520004fa99700010320006e0207000001eb0095
:10253000d2a79f000d007800cffb07006fa2970085
:10254000dfa19700000178008d0078000f989700b8
:102550004a0007004f0778004f06be004f05be0037
:102560004f04be008f04b1000000060010002000e0
:10257000e40f47005ffe3d00d0af9f0053c6b3009d
:1025800083cf9f007ffe37000e00e00062fe350023
:10259000d0af9f0072fe3700f28747008e1f780091
:1025a00002027800030178000000e000020032001f
:1025b0000007780001003700728757008002eb00a7
:1025c0000100e000010032008102e9007080570044
:1025d000060009000018eb007280570000a8eb000d
:1025e0002310200093bf9f00aebf9f00b1bf9f008c
:1025f000c5bf9f000100e00004003d00b0042000c2
:10260000600389000080eb0005003700004feb00fd
:10261000eebf9f00debf9f00840078009402070099
:102620004f0778002f01b10000000600889fbe0010
:102630008a1f780080047800490090000204780026
:10264000800f540001003600000478000801780073
:102650006a8544001a0078001b0207001a00440033
:10266000000d7800e8844400990c14000048eb0049
:102670004f0578004f04be0000000600f2874700b7
:10268000889fbe008a9fbe008c9fbe008e1f780070
:102690008004780001057800020478008305780042
:1026a0006107620002003a008b0f540008003900f5
:1026b000080178008a00780009007800dbff070035
:1026c0008b0f540002003900880578001e00370087
:1026d000088655000c017800f00f56000100360006
:1026e00002012000010220007e805700fd0107004a
:1026f0008c0678000500370002012000fe8057009c
:1027000009007800c9ff0700f0865600ef8f5600d9
:10271000f9ff3e004461de0000ff2f008091b90008
:102720000c014100fe80570009007800bfff070040
:102730000e00e00004003a00080178008a007800ea
:1027400009007800b9ff07000b0078004f077800f8
:102750004f06be004f05be004f04be002f01b10062
:102760000000060000000500000005000000050054
:10277000000178000040eb008080fb008180400079
:102780004304220081814100134278000404e000e8
:1027900004003a00500422008100400011407800fb
:1027a0000000060092017800934f520005003a00a5
:1027b0005004220081004000114078000309e80025
:1027c000010037000040e800ea4f5000eaff360001
:1027d00000000600f6874700889fbe008a9fbe0063
:1027e0008c9fbe008e1f7800800478000104780062
:1027f00083057800040678000000eb00c0b79f0056
:102800008080eb00d1b79f00e0b79f00f2b79f0038
:102810000008200080bf9f00980078000100780029
:102820000005eb00010037000a05e80030417800a0
:102830000204e0000300320053c2b300834f510092
:10284000f9ff3a000a00e000040032000a017800b3
:102850000900780075ff0700180c4500180778007c
:1028600050c2b3009e4f100033013a000e07e8003b
:102870000e0c780010003700cfb097000100a000c8
:102880000b003700cfb097000110a0000800370000
:10289000cfb097000120a00005003700cfb097000f
:1028a0000130a00002003700cfb097000140a00027
:1028b000c1b79f00000ce800180078009040780035
:1028c000b2c2b30082cf5000f1ff320007003c00db
:1028d00002c2b30082cf5000f0ff320032c2b30018
:1028e00082cf500007003a00efff3700d2c2b3009a
:1028f00082cf5000e0ff320002c3b30082cf50000d
:10290000e0ff3200a2c2b30082cf50000d003a00b7
:10291000000ce8001c80e900000e78001000780030
:10292000e0b79f000000e0000f003d00cfb097002f
:102930000100a200c1b79f000000ea00e0b79f00bd
:10294000090037005c0c0700e0b79f00010037006a
:10295000000ce800180078009000fb000103b100b3
:10296000e98f5000faff36004fb097000008a3002f
:10297000020032000010a100c0b79f0018007800cc
:10298000e1c2b30090cf100016003a008000eb00c7
:10299000d1b79f000000e800000c7800a1c2b3008e
:1029a00090cf100006003a00000ce8001c80e900ff
:1029b000000e780010007800d0b79f0009003700a3
:1029c0003d0c0700d0b79f0001003700000ce80065
:1029d000180078009000fb000103b100e98f50005f
:1029e000faff36000800780061ff07008046780093
:1029f000180078001000fb005c0c07009106200016
:102a0000810f50003800320012003c0041062000c7
:102a1000810f5000340032000a003c0011062000f3
:102a2000810f50002000320031062000810f50003d
:102a30009a00320051022000810f5000ae003a008f
:102a4000a700370071062000810f5000aa003c004b
:102a50008200370001072000810f50005c00320027
:102a600007003c00e1062000810f50007400320096
:102a7000f1062000810f50009f003a003900370016
:102a800051072000810f50002700320081072000ed
:102a9000810f50004200320031072000810f5000aa
:102aa00095003a00850037008d80fb000c0178000e
:102ab00000fe2f000f004000330c07000000e00074
:102ac0009c00320018007800000ce800904178006b
:102ad00002fe2f000f014100f88057000900780026
:102ae00021ff07000e0037008d80fb008c0178006d
:102af0001200200000fe2f000f004000440c0700d1
:102b00000000e0008b003200180ce80002fe2f00ed
:102b10000f014100f88057000900780011ff0700fd
:102b200000054500840037008d80fb008c01780093
:102b30000001eb0000fe2f000f004000340c0700e6
:102b40000000e0007b003200180ce80002fe2f00bd
:102b50000f014100f88057000900780001ff0700cd
:102b6000efff37008d80fb008c0178000001eb0047
:102b700000fe2f000f004000250c07000000e000c1
:102b80006c003200180ce80002fe2f000f0141001b
:102b9000f880570009007800f2fe0700e0ff3700d8
:102ba0008d80fb008c0178000001eb0000fe2f00ff
:102bb0000f004000160c07000000e0005d0032002e
:102bc00018007800000ce8009041780016003700eb
:102bd0008c0178000001eb00010f200000fe2f00a7
:102be0000f0040000a0c07000000e0005100320016
:102bf000180ce8000fb097009fb097002fb1970016
:102c0000bfb19700e00f5000e08f5800e00f59006f
:102c1000e08f590003003a008001eb00e20322003c
:102c20004000370083c7b30002fe2f000f014100b0
:102c3000f880570009007800cbfe0700b8ff370086
:102c40000b0145008d80fb008c01780000fe2f00f9
:102c50000f0040004b0c0700360037008d80fb0052
:102c60000c01780000fe2f000f004000c60b07008b
:102c70000000e0002f00320018007800000ce8008f
:102c80009041780002fe2f000f014100f8805700ac
:102c90000900780098fb0700a1ff370000c8b300c7
:102ca00080cf560023003a00180ce8001c80e90091
:102cb000000e7800104078000d00370000c8b30007
:102cc00080cf56001b003a00180ce8001c80e90079
:102cd000000e78008001eb00100178001100370031
:102ce00001c8b30081cf560012003a00180ce8006a
:102cf000e0df9f000800370050c2b300e0df9f0014
:102d00000e0c78000000eb00c0b79f00e0b79f00fa
:102d10008080eb00d1b79f0013002000e2fd2f0060
:102d20000f014100f8805700090078008ffe07006e
:102d30007bff3700180ce8000a0078004f07780086
:102d40004f06be004f05be004f04be006f01b1002c
:102d5000000006008200fa00889fbe008a1f7800eb
:102d60000005780082047800c13f9f000004eb005a
:102d7000100037000902780088017800a2f72f00c0
:102d80000f01410081f72f008f8040000a0078007a
:102d900090fe070008004000880f500004003d002e
:102da000b0042000600389000084eb0004003700b9
:102db000000478004f3897001004e000edff3a005f
:102dc000080078004f0578004f04be000080fa002c
:102dd000000006008180fb00010037000201e900cd
:102de000800178000008a300060032000200e00025
:102df000220032003082fb00810f5200f7ff3a00c0
:102e0000030037000000eb000200e0001d0032006c
:102e10001380fb00810f50001b00320016102000b1
:102e2000868bb900010037000281e90003007800b9
:102e3000e10f51000a00360033026b00f5ef2f005e
:102e4000848242000482ea000482620005082800ad
:102e500005026200f4ff3200010037000201e900c0
:102e6000800178000200e000050032003082fb00a3
:102e7000810f5200f9ff3a000300370000000500ff
:102e80000000eb00000006000300780000000600d0
:102e9000010037000201e9000200e00005003200f5
:102ea00030427800b1417800834f5200f9ff320080
:102eb00001003700000005000480fb008381fb0057
:102ec0000300500000000600800178000200370077
:102ed000b15978000201e9000200e000fcff3a006d
:102ee00000000600889fbe008a9fbe008004780014
:102ef0000200e0005a00320001407800814c780066
:102f000082814400f1f99f00e20f51005400360025
:102f100091449800a1449800e1f99f00d1f99f00e5
:102f2000e60f51004e003600b1449800c1f99f00f1
:102f3000e80f51004a0036000905ea006305650004
:102f40000a8444000a055100c1ff2f0001056500f5
:102f50000080fb008000eb00121020001310200006
:102f60008e0c0700008cbe000a01440060b99f006f
:102f700071b99f00e80f5500390036002004980011
:102f800031049800400498005104980020b99f0033
:102f900031b99f0040b99f0051b99f00f80f55000b
:102fa0002f0036006004980071049800000c98000f
:102fb000110c9800200c9800310c9800400c9800df
:102fc000510c980020b19f0031b19f0040b19f008b
:102fd00051b19f0060b19f0071b19f0000b99f0087
:102fe00011b99f00640164007801410002044400ab
:102ff000020555006011b8000203be000002be00c9
:103000000403be006022b8000000720081807200dc
:1030100002017300838173000f00370008027800fb
:10302000009abe00029abe00009abe000292be0044
:10303000000c9800110c9800220c9800330c98009a
:10304000400c9800510c9800620c9800730c98008a
:103050000a02b1000802b000ff0f5500efff3e006a
:10306000090078004f05be004f04be0000000600b6
:103070000200fa00881f780000047800e2bf9f0079
:10308000648157000800780032ff07009800900024
:103090000148a300010032000080eb004f047800db
:1030a0000080fa00000006008000eb002f003700cf
:1030b0003c00fa00889fbe008a9fbe000004be004c
:1030c000020578000f0078004004b1001d000900df
:1030d0000018eb0088a79f00d8af9f008085eb0009
:1030e000ebaf9f006022b8006033b800c0fb2f0038
:1030f0000f0040002d090700120020008a00780010
:10310000c0fb2f000f004000120807006fb29700ad
:10311000ffb297000fbb97009fbb9700dfad9700f2
:103120000fa597000900e000090032000a8555004c
:10313000cfd5de000402450085824d0006834d0098
:1031400087834d000100320004044400880c78009d
:103150004f05be004f04be000080fa0000000600cc
:103160000001eb00d2ff0700ce0b37001200200059
:10317000cfff0700cb0b370022002000ccff370029
:10318000800078001000200002022000828f500092
:1031900004003200e9805000e48f50000100360046
:1031a0000000eb00000006000800fa00889fbe0047
:1031b0008a9fbe000004780081057800fe0044006c
:1031c0001100780038119000820f50000300310088
:1031d000b084fb0080087800030037000800780006
:1031e0001709070080047800b0022000808f540087
:1031f000040032000005eb00d0022000808f540054
:103200001b003a00d982b20009f0a7008904ea0045
:103210008904e9004f4dde00fe00440011007800f3
:1032200038119000820f500003003100b084fb0081
:1032300080087800030037000800780000090700c4
:103240008004780000fd2f0009004000e90f5000c5
:10325000070036000b00e000050032003810900037
:103260000000e000020032007e0044001008e90087
:1032700000fd2f00090040008005eb00e90f500021
:1032800013003600381090000000e0007400320097
:103290007e044400180ce90071003700ea59b900b7
:1032a00080054100fe0044001100780038119000b4
:1032b000820f500003003100b084fb0080087800ca
:1032c0000300370008007800dd080700800478005c
:1032d00000fd2f0009004000e90f500003003e00f0
:1032e000b1cc2000818f5500ecff3400615ab90049
:1032f000612bb90084bf9f0095bf9f00a6bf9f00b0
:10330000b7bf9f0020003700a40020000500200068
:103310006033b8000fb897009fb897002fb9970097
:10332000bfb99700c20f0700cfcdde000082440076
:1033300081824d0002834d0083834d000403b10060
:103340000580b1000680b1000780b10084bf9f00f6
:1033500095bf9f00a6bf9f00b7bf9f00fe0044001f
:103360001100780038119000820f500003003100e6
:10337000b084fb0080087800030037000800780064
:10338000af0807008004780000fd2f00090040000e
:10339000e90f500018003e00d07a240011ae27003b
:1033a00042e12a00731420000fba97009fba9700d9
:1033b0002fbb9700bfbb97000020e10001a8e100f0
:1033c00002b0e10003b8e100cfff34000a0037008b
:1033d0007e01440012007800910f5000030031007c
:1033e000b084fb0000097800030037000800780073
:1033f00093080700800478000903b10061022000ef
:1034000088804000e98f5400f1ff36001100e00091
:10341000020032007e044400180ce9000a00e000bb
:10342000160032006000b8006011b8000fba9700b3
:103430009fba97002fbb9700bfbb970004025000b4
:1034400085825800060359008783590084bf9f0076
:1034500095bf9f00a6bf9f00b7bf9f000700370022
:103460006000b800020020000300280080bf9f0019
:1034700091bf9f00a2bf9f00b3bf9f000fb89700ee
:103480009fb897002fb99700bfb997004f05be00ae
:103490004f04be000080fa00000006000f04b000d8
:1034a000889fbe008a9fbe008c9fbe008e1f780042
:1034b00000067800b1a79f00c29f9f00a3a79f00ae
:1034c000b49f9f007e014600920078003c1090005f
:1034d000808f5000040031003180fb00010978002a
:1034e0000007eb000e0037000c00780054080700be
:1034f000fbff37007e014600920078003c109000f0
:10350000808f5000030031003180fb0001097800fa
:10351000020037000c007800490807001e00200058
:1035200001032000810f5000f2ff32006022b8003a
:103530006033b80094af9f00a5af9f00b6af9f0067
:10354000c7af9f008002eb0095a79f00e10220001b
:10355000810f500025003a007e014600920078005d
:103560003c109000808f5000050031003180fb003e
:10357000010978006044b8006055b80012003700b7
:103580000c0078002e080700faff37007e01460085
:10359000920078003c109000808f500003003100b2
:1035a0003180fb0001097800020037000c00780030
:1035b0002308070061045400e0845c0060055d009e
:1035c000e0855d001e00200001032000810f5000f7
:1035d000eeff320098af9f00a9af9f00baaf9f00e7
:1035e000cbaf9f001500200095a79f006022b80078
:1035f0006033b800d4af9f00e5af9f00f6af9f00e7
:1036000087b79f008002eb00a59f9f006022b80053
:103610000600200007ff2300d49f9f00e59f9f0026
:10362000f69f9f0087a79f006044b8006055b800d0
:103630006033b800f6a79f0087af9f008500370072
:10364000e1022000810f50000e003a009fa3970076
:103650000700e0008c003a005fa89700efa89700f1
:103660007fa997008fb1970090af9f00a1af9f00f7
:10367000b2af9f00c3af9f001100200091a79f0031
:103680006a00370091032000810f500003003400ce
:103690000050a0009dfa2f00808646007000200098
:1036a000010020006011b8005faa9700efaa970000
:1036b0007fab97008fb397000020e10001a8e100e5
:1036c00002b0e10003b8e1000c003c007fa39700ca
:1036d0008fab97004438dd00cc30de0081007000f5
:1036e0004430dd004feade000081460081014a00df
:1036f000f2a79f0083af9f003f003700d00020005b
:10370000010020006011b8005faa9700efaa97009f
:103710007fab97008fb397000020e10001a8e10084
:1037200002b0e10003b8e1001d003c006022b800d7
:103730000600200007fb23005f989700ef98970092
:103740007f9997008fa197009a0b07000002be0097
:103750000203be00d49f9f00e59f9f00f69f9f003d
:1037600087a79f006168b900490a07005f9a970020
:10377000ef9a97007f9b97008fa397008d0b070010
:103780000002be000203be000800be000a01be0027
:103790008e0a07000004be000205be0016003700b6
:1037a0000d00e00014003200af9a97000500e00021
:1037b00011003a006022b8000600200007fe230036
:1037c0005f989700ef9897007f9997008fa19700d7
:1037d000780b07000002be000203be000800be0016
:1037e0000a01be00790a07000004be000205be00ff
:1037f00016002000a69f9f005fa89700efa89700e3
:103800007fa997008fb1970061004000e0804800d9
:1038100060014900e0814900d0af9f00e1af9f0007
:10382000f2af9f0083b79f001e0020007e0146007c
:10383000920078003c109000808f5000030031000f
:103840003180fb0001097800020037000c0078008d
:103850007b0707000dfd2f0080864600e98f56008c
:1038600077ff3600800078000150a0001106b100fb
:10387000e58f500072ff3600e1022000810f5000fa
:1038800072ff320001003700e00220000e00e0006d
:103890001b003a003c1090000000e00002003200e3
:1038a000fe0046009108e900bf9897000100e00083
:1038b0000c0032000000e00002003200fe00460072
:1038c0009108e9001fa197000200e0000900320002
:1038d0000000e000070032007e0646001c0ee900f2
:1038e000040037006022b8006033b8000c00780094
:1038f0002e070700afa197006118b90050003700ec
:103900001fa297000400e00016003a005faa97008b
:10391000efaa97007fab97008fb3970094af9f00fb
:10392000a5af9f00b6af9f00c7af9f001100370043
:103930007fa197008fa997004418dd00cc10de000e
:10394000810070004410dd00f0a79f0081af9f0050
:1039500061024200e0824a0060034b00e0834b00ba
:10396000050037005faa9700efaa97007fab97008a
:103970008fb39700800678007000200001002000bf
:103980006011b8000020e10001a8e10002b0e100f0
:1039900003b8e100e6ff34000d0078000050a000fd
:1039a00001072000810f500015003a00bf989700d2
:1039b0000c007800fcfd07006022b8000600200023
:1039c000070028000400e1000588e1000690e100fe
:1039d0000798e10013003a00bf9997000300e00048
:1039e00007003a006022b8006033b8000c0078008d
:1039f000ee0607006000b8006011b8003b01370018
:103a00003c1290006000b8006011b8000400e000b3
:103a1000040032007e0646001c0ee9006000b8007b
:103a20006011b8007fa297008faa9700e00f5200a4
:103a3000e08f5a0007003a00afa297006128b90052
:103a40007df307006011b80074f407004509070012
:103a5000260137001faa9700afaa97003fab970037
:103a6000cfab970068025200e0825a0060035b000f
:103a7000e0835b002c0020000402d0008582d2008d
:103a80000683d2008783d2000c06e900faff3a00d1
:103a900004024000858248000603490087834900ec
:103aa000d4af9f00e5af9f00f6af9f0087b79f00a0
:103ab000cf9a97000500ea00cf80de006109b900c7
:103ac0005faa9700efaa97007fab97008fb397008c
:103ad0000020e10001a8e10002b0e10003b8e1002c
:103ae0000f0034002002200060038900afa297007d
:103af0006128b90066090700f4ff2f00f5ff2f00c9
:103b0000f6ff2f00f7fe2700aa0a0700f4ff2f0098
:103b1000f5ff2f00f6ff2f00f7fe27001a003700f1
:103b20004f9b970067f92f0007004300cf80de000e
:103b30006109b9005faa9700efaa97007fab9700d1
:103b40008fb397000020e10001a8e10002b0e1007e
:103b500003b8e10039003d00200220006003890025
:103b6000afa297006128b900490907006022b80098
:103b700006002000070120008e0a07006022b8001e
:103b800006002000070120008a0a0700d70037003e
:103b90006022b8000600200007fe23000800be00d7
:103ba0000a01be00d60807000c0646008d864e00ae
:103bb0000000e0000d00350061064600e0864e0082
:103bc0006022b8000600200007ff23000800be00a6
:103bd0000a01be00770907000002be000203be0012
:103be0000800be000a01be00040037000802be0043
:103bf0000a03be000800be000a01be0073090700e8
:103c00000004be000205be005fa89700efa8970061
:103c10007fa997008fb1970061005000e0805800a5
:103c200060015900e0815900d0af9f00e1af9f00d3
:103c3000f2af9f0083b79f00020037007fa6970076
:103c40008fae9700e00f5600e08f5e00d0ff3d0082
:103c5000fca79f008daf9f003fa29700cfa2de0080
:103c6000612bb90094af9f00a5af9f00b6af9f0036
:103c7000c7af9f0000022000010020006011b800c3
:103c8000cf9a97004faede00050250008c8258009c
:103c90000c0359008c835900d49f9f00e59f9f001f
:103ca000f69f9f0087a79f005fa89700efa8970047
:103cb0007fa997008fb197000000420081804a00e1
:103cc00002014b0083814b00d0b79f00e1b79f00fa
:103cd000f2b79f0083bf9f001faa9700afaa97006b
:103ce0003fab9700cfab97000020e10001a8e100b7
:103cf00002b0e10003b8e10006003400dfaa97003b
:103d00004f9b9700068052000002b000b0a79f00b2
:103d10000b0033006000b8006011b80090af9f0046
:103d2000a1af9f00b2af9f00c3af9f004003200030
:103d3000bfa09700808f500038003c000200370081
:103d40000001eb00b2a79f0042052000bfa1970031
:103d5000030151000000200001f82300b70f070005
:103d60000006be002fa297006120b900c808070016
:103d70000002be000203be000c00be0094b79f000c
:103d8000a5b79f00b2b79f00c7b79f00750807008f
:103d90001fb29700afb297003fb39700cfb3970021
:103da0006e0d07000002be000203be0094af9f002c
:103db000a5af9f00b6af9f00c7af9f00bfa29700ff
:103dc000ff8f520015003c006022b8006033b8003d
:103dd0000800be000a01be005d0807000000e00008
:103de0000e0032006000b8007fa3970061006300fe
:103df000e00f5000e08f580008003a007fa69700bf
:103e00008fae970061064600e0864e00fca79f003b
:103e10008daf9f006044b8006055b800afa6970012
:103e20006168b9009a0807000002be000203be00e4
:103e3000b4a79f00c5a79f00d6a79f00e7a79f0034
:103e40000802be000a03be00da0907000004be0033
:103e50000205be007fa097008fa897008f0807007b
:103e60000002be000203be003fa09700cfa0970053
:103e70005fa19700efa19700ce0907000002be00e6
:103e80000203be001fa89700afa897003fa99700a4
:103e9000cfa99700cd0807000802be000a03be00a4
:103ea000ca0807001faa9700afaa97003fab970068
:103eb000cfab9700bf0807000004be000205be009c
:103ec0006022b8006033b800210807000000e0005d
:103ed00002003a0020022000600389005faa9700d8
:103ee0000800be000a01be007e0f07004f077800e1
:103ef0004f06be004f05be004f04be000f04b100c8
:103f000000000600cf23b000889fbe008a9fbe003d
:103f10008c9fbe008e1f780000047800010078009e
:103f2000b2a79f00e39f9f0094af9f008505780094
:103f30008006eb000b0037007e0144009200780001
:103f400038109000808f5000030031003180fb005a
:103f5000010978000200370008007800b805070062
:103f60001d00200001032000810f5000f2ff3200ed
:103f70000006eb006022b8006033b80094b79f00e1
:103f8000a5b79f00b6b79f00c7b79f00e10220000a
:103f9000810f50002c003a007e014400920078000e
:103fa00038109000808f5000090031003180fb00f4
:103fb000010978006022b8006033b80094b79f0010
:103fc000a5b79f00b6b79f00c7b79f001a0037007c
:103fd000080078009a050700f6ff37001fb0970029
:103fe000afb097003fb19700cfb19700610050008c
:103ff000e080580060015900e081590090b79f00af
:10400000a1b79f00b2b79f00c3b79f007e014400d5
:104010009200780038109000808f5000030031002b
:104020003180fb00010978000200370008007800a9
:10403000830507001d00200001032000810f5000b0
:10404000e6ff32001c0020006011b800c29f9d00f6
:10405000d39f9d008004eb006022b8006033b8005d
:10406000d4af9f00e5af9f00f6af9f0087b79f00da
:10407000090778000905780054003700810f5000c7
:104080000c003a000c00e0005a003a005fa89700cc
:10409000efa897007fa997008fb1970090b79f0076
:1040a000a1b79f00b2b79f00c3b79f001c002000bc
:1040b0003c003700010320005faa9700efaa970099
:1040c0007fab97008fb3970061024200e0824a0005
:1040d00060034b00e0834b00d4af9f00e5af9f002f
:1040e000f6af9f0087b79f00c3072000830f5700dc
:1040f00024003c00810f500001003200dfac97002b
:10410000c276dd000a00e0001200320085db2f00dd
:104110008f8242008d8642006102b9000403b10023
:104120000580b100a2002000030020001d007800df
:104130009d009000d4b79f00e5b79f0017080700c7
:104140005fb29700efb29700801e420081964a004e
:104150000500370086db2f000f0343008d06430068
:10416000cf91de00828ebe000a05e8001d0020000f
:10417000e90f55000b003a000d0747000005eb0062
:1041800008003700810f5000060032004f90970062
:10419000df9097000000a000c0979f00d1979f007c
:1041a000c94520007e01440092007800381090003c
:1041b000808f5000030031003180fb00010978003e
:1041c00002003700080078001d05070002fd2f00df
:1041d00000014100e1022000e90f5100a7ff360075
:1041e000810f5000a7ff32000c00e00003003200f6
:1041f0000a003700e0022000080037005faa97009d
:10420000efaa97007fab97008fb3970094b79f00fa
:10421000a5b79f00b6b79f00c7b79f000d00e0008d
:1042200028003200000178000250a0005106200052
:10423000810f510023003a008b00780008007800bd
:10424000d9fb07006022b800060020000700280004
:104250000400e1000588e1000690e1000798e10014
:104260000b003a000b00e0002100320038129000f1
:104270006000b8006011b8000400e00004003200e3
:104280007e044400180ce9006000b8006011b8001a
:104290001fb29700afb297003fb39700cfb397001c
:1042a0000002420081824a0002034b0083834b00dc
:1042b00094b79f00a5b79f00b6b79f00c7b79f00f0
:1042c000120037000000e0000500350038109000b3
:1042d0000000e000020032007e0044001008e90007
:1042e0000d00e00009003a00600120006003890031
:1042f0006022b8006033b80008007800ab04070003
:104300006000b8006011b800890337004f9e950027
:10431000df9e9500e00f5600e08f5e0007003a0038
:104320009faa97006128b90043f107006011b80007
:104330003af207000b0707007d0337001fb0970014
:10434000afb097003fb19700cfb197005faa970039
:10435000efaa97007fab97008fb397000400e100ae
:104360000588e1000690e1000798e10020003a008e
:1043700090002000010020006011b8001fb29700db
:10438000afb297003fb39700cfb397000020e10092
:1043900001a8e10002b0e10003b8e10014003c0014
:1043a000bfa29700fe8f52000a003c000c00be0026
:1043b000050378000603e900030033008100d10003
:1043c0000080d300fbff3700e00f5000e08f580063
:1043d00007003a009fab97006138b9002c0707002f
:1043e0000004be000205be000c00be0061003700e4
:1043f000220020006f9e9700110009000206d800dd
:104400000000ea00cf80de006109b9001fb297000a
:10441000afb297003fb39700cfb397000020e10001
:1044200001a8e10002b0e10003b8e1000f00340090
:1044300020022000600389009faa97006128b9002c
:1044400013070700f4ff2f00f5ff2f00f6ff2f00e2
:10445000f7fe270057080700f4ff2f00f5ff2f0095
:10446000f6ff2f00f7fe2700910037006f9b9700a3
:1044700067f92f0007004300cf80de006109b90013
:104480001fb29700afb297003fb39700cfb397002a
:104490000020e10001a8e10002b0e10003b8e10062
:1044a0000d003d0020022000600389009faa9700b4
:1044b0006128b900f60607006022b8000600200057
:1044c000070120003b0807006022b800060020001a
:1044d00007012000760037000a00e0000f003200dc
:1044e0000b0037004274dd0086db2f000f03430012
:1044f00008044300a20020000300200018007800f8
:104500009800900025070700008cbe000a05e8000f
:10451000e80f5500f3ff34000e07e8009fb3970043
:10452000e88f540002003c00878f540005003400df
:104530004270dd008cdb2f000f06460000004600b5
:104540005e0037009fb69700f18f5600f8ff3c00e1
:10455000e98f560009003a001fa997006110b900c1
:10456000cb0607000004be000205be004f98950070
:10457000df989500c9060700490037009fb19700f2
:10458000e88f51001d003c001faa97006120b90070
:10459000bf0607000004be000205be004f9895004c
:1045a000df989500bd0607000002be000203be00b2
:1045b0000800be000a01be00fe0707000004be009e
:1045c0000205be009fb29700688012004200dd0025
:1045d00061012200008040009000900010007800ef
:1045e000ab0607000002be000203be000800be00ca
:1045f0000a01be0040070700cd0237003fa3970025
:104600007b004300d2ff2f009fb3970082b9b9000f
:1046100002014000fe0f51000a003c004f98950037
:10462000df9895000201e900030033008100d1000a
:104630000080d300fbff3700e00f5000e08f5800f0
:10464000bbff3a001fae97006160b90090060700fb
:104650000004be000205be004f989500df9895004b
:104660008e0607000002be000203be000800be0066
:104670000a01be00cf0707000004be000205be000d
:104680009fb697006a8056004200dd00610122005b
:104690000080400090009000100078007c06070029
:1046a0000002be000203be000800be000a01be00f8
:1046b000c00707009e0237000e07e90064005000a3
:1046c0001001780090019000e00f5100e08f590038
:1046d000f9ff3200940020009fb0970011000900fc
:1046e0008400d800010278000001eb00d2af9f00e7
:1046f0000400e000550032009fb197000300e00085
:1047000001003d0069024200680012004200dd0025
:1047100061012200008040001005780090059000a3
:1047200046db2f000f0343006044b8008002eb001b
:10473000d5af9f00c4a79f000800be008504780085
:10474000060478000002be002f0037006404440015
:1047500018067800980690000a01be000c00be0002
:10476000d4b79f00e5b79f00790607005fb29700b6
:10477000efb297000403400085834800068cbe001a
:104780000a01be0000a02c00a1b92300f6b79f00cb
:1047900087bf9f00df0507000002be000a01be00c0
:1047a0000c00be00d4b79f00e5b79f007806070055
:1047b0000001be005fb29700efb297000400be0098
:1047c000760607000002be000900e8007fb39700ec
:1047d0008fbb97005fae97008c8f540009003a00a2
:1047e000e00f5300e08f5b0006003a00800678007f
:1047f000fd07b200ddaf9f009fb09700e980500039
:1048000091b79f00800478008e8f5400cfff3a004c
:104810000404be004fa29700e00f5400e08f5c003c
:10482000060032004270dd0082db2f000f014100e4
:10483000000041000888be000e07e800690212006f
:104840009fb197008481410093b79f000002eb0065
:10485000c4a79f00dfae97006f003700cfa297007c
:10486000fd825200c5a79f000e06e900fc07b200ba
:104870006033b800d6af9f00e7af9f004260dd0015
:1048800087db2f008f83430080834300d7a79f00df
:1048900017047800970490006055b800cd55dd00ee
:1048a0004348de008b0570004d4ddd004340de00c7
:1048b0000a057000cd44dd000004eb005fa99700fd
:1048c000efa99700080441008984490060054d0064
:1048d000e0854d0004a02c00a5b923006033b8008a
:1048e0000440e10005c8e10006d0e10007d8e1007e
:1048f0000e0036000800be000a01be00e3090700f2
:10490000d0af9f00e1af9f0004a02c00a5b9230009
:104910006033b8000800be000a01be00e2090700cb
:10492000dfa39700808bbe00050037005fa09700d3
:104930000888be006011b800d2af9f00e3af9f00af
:104940000e00e900f007b200800f56000c003a009c
:104950008d0f56000f0032004260dd0083db2f0018
:104960008f8141000080410090009000100078008d
:10497000e00f5000e08f5800f401320002003700d1
:104980008d0f5600030032000c06e900fc07b20050
:10499000baff37005faa9700efaa9700e00f520016
:1049a000e08f5a001c0032009fb29700e98242005b
:1049b00095b79f008d06e900fd07b2008e8f560067
:1049c0000e003a000d07e900fe07b2000e00e900f4
:1049d000f007b2004200dd0086db2f000f0343002a
:1049e00000004300c270dd00810043001001780028
:1049f0009001900031187100219071004268dd0033
:104a000083db2f008f814100008041005faa970067
:104a1000efaa97000488be009fb29700f18f520062
:104a20008eff3400f28f520009003a004269dd0027
:104a300086db2f000f03430002014300e00527003f
:104a400091082000b20f1000a28f180083ff3600db
:104a50008d037800220322000000eb008700400055
:104a6000f107b2008e8f500010003200c208dd0046
:104a700083db2f008f814100818041001104780089
:104a800091049000640141001202780092029000ab
:104a9000840f5400858f5c00040039000d003e0037
:104aa0000000e800e20f5000ecff3a001fb2970050
:104ab000f20f520007003a00d7af9f006044b800e1
:104ac0006055b8008006eb000800be000a01be0079
:104ad00068003700990020009fb29700fb8f5200ba
:104ae00001003c00190020004fa397000903430078
:104af000c6a79f00100020000900dd000000e900ab
:104b00006101b900d2a79f00e3a79f000aa02c0073
:104b1000abb92300890178008301e9000300330069
:104b20008b85d1000a85d300fbff3700070478008e
:104b30006000b800d0af9f00e1af9f000a02be0046
:104b40001fb59700870578002e003700c240dd00b2
:104b500086db2f000f034300810043001101780022
:104b6000910190000203be00090678000c06e900de
:104b7000030033008703d1000683d300fbff370017
:104b80005fae9700efae97000603460087834e00a6
:104b90008688be006fa0970083066000dfa09700a4
:104ba000028660000401be000c00be00d4b79f0066
:104bb000e5b79f00f6b79f0087bf9f007705070006
:104bc000d0af9f00e1af9f000800e8005fb2970000
:104bd000efb297007fb397008fbb97008b0f540005
:104be00006003a00e00f5300e08f5b0003003a003c
:104bf00080057800fb07b2006905550000047800c5
:104c0000f807b2008e0f5400d0ff3a008b037800f3
:104c10009ab79f005fa89700efa89700e00f500099
:104c2000e08f58008bff32000e01e800f207b2005f
:104c3000870f5100070032004277dd0083db2f0031
:104c40008f8141000e874100008fbe00020778006f
:104c500080ff37000e00e900f007b2004200dd00df
:104c600084db2f000f024200000042001000a00071
:104c700078ff3700dfaa970005864600fc07b200e0
:104c80008e0f560009003a000e07e800fe07b2003a
:104c90000e02e9004222dd0086db2f000f034300f5
:104ca00004024300000aeb00341278006022b800ce
:104cb00056d62c00d71c24003e0607000004be0078
:104cc0000205be004266dd0087db2f008f834300b4
:104cd0000c8643001c0078009c009000ef04070045
:104ce0000002be000203be000800be000a01be00b2
:104cf000360507008d06e800e28f5600ddff3a001a
:104d00000004be000205be001fae97006160b9003e
:104d1000df0407000002be000203be000800be0060
:104d20000a01be00230607000002be000203be0007
:104d3000d4a79f00e5a79f00f6a79f0087af9f001d
:104d4000cfa297005503b000c59f9f006f9b9700af
:104d500006835200d69f9f00bfa39700868f530003
:104d6000060034000600e0000b003500060678005f
:104d70001d0020009db79f00030037003fa697004d
:104d80000000eb0090b79f0040032000800f56000a
:104d900037003c00030037001100200091b79f004e
:104da0000006eb00920620000c01510000002000dc
:104db00001f82300a10b07006a0407005fa2970017
:104dc000efa297007fa397008fab970063090700be
:104dd0000002be000203be00f49f9f0085a79f0053
:104de00096a79f00a7a79f00520320000c01510027
:104df0000000200001f82300900b07005904070071
:104e00000002be000203be005fa09700efa0970063
:104e10007fa197008fa99700f20907000004be0048
:104e20000205be000002be000203be005fa09700a4
:104e3000efa097007fa197008fa99700dd040700de
:104e40007f9a97008fa297001fa39700afa39700a8
:104e5000de0407000002be000203be00d4a79f00cc
:104e6000e5a79f00f6a79f0087af9f0008003700c7
:104e70006000b8006011b800f09f9f0081a79f00fc
:104e800092a79f00a3a79f000004be000205be00da
:104e9000dfa897000180e800f007b2008e0f5000f5
:104ea0004f0032004200dd0082db2f000f01410085
:104eb000000041001001780090019000f04f2600a2
:104ec000d1dc2100800f5100818f59000e003e007f
:104ed000e00f5100e08f590005003a00dfa997006c
:104ee00063804100f007b2008e0f500025003200b1
:104ef0001faa97006120b9004fee070002002000b2
:104f000003e823001600370000502600d1dc210002
:104f1000800f5100818f5900030032009faa970033
:104f20006128b9000b0037005fab970063014300b5
:104f3000f207b2009fab97006138b9008e0f5100a5
:104f400004003a003cee07000200200003f02300ba
:104f50000300370038ee07000200200003f42300ae
:104f60002eef0700ff0307000002be000203be0091
:104f70000800be000a01be00940407000004be0041
:104f80000205be00500320000c005000e10f50004d
:104f9000130034006022b8000600200007ff230041
:104fa0000800be000a01be008e0907006022b8009a
:104fb0006033b800e60307000000e00008003a0094
:104fc0006022b8000600200007ff23000800be0092
:104fd0000a01be007d0407000004be000205be00f9
:104fe0003fa09700e3061000ef98970081865600d7
:104ff0000802be000a03be005fa09700efa0970062
:105000007fa197008fa99700700407007f9a9700ef
:105010008fa297001fa39700afa397006504070016
:105020000002be000203be0094af9f00a5af9f0028
:10503000b6af9f00c7af9f0064805600cf9897001f
:1050400001f0a100810f500033003c000400be00bd
:10505000dc0807006022b8000600200007342400a6
:10506000a70307000000e0001b0035009fb2970077
:105070000500e000070032005f9b970006066e0007
:105080000cf0a7000c06ea000c06ea004f66de00f2
:105090009cb79f006022b8000600200007fe230096
:1050a0001fa89700afa897003fa99700cfa9970026
:1050b000400507000002be000203be0094af9f003f
:1050c000a5af9f00b6af9f00c7af9f00cfa29700cc
:1050d0008502e800c5a79f004fa097004003b000dd
:1050e0008d0f50000a003d001fb397000600e0003e
:1050f000090032006022b8006033b8000800be002a
:105100000a01be00920307000000e0000200320026
:1051100020022000600389004fa297001fa897007b
:10512000afa897003fa99700cfa99700ed0a070005
:105130004f0778004f06be004f05be004f04be006b
:10514000ef1fb100ef03b100000006000c0778006c
:105150000dfe3700e4874700889fbe008a9fbe008f
:105160008c9fbe008e1f7800000478000207780034
:105170000100e000fa003500bbf62f008a01200094
:10518000e18f500004003400e28f5000f4003a0038
:10519000ebbc2f005a032000fe00440011007800f1
:1051a00038119000820f500003003100b084fb00e2
:1051b000800878000300370008007800200107000d
:1051c0008004780009007800edf707000000e00097
:1051d000f1ff3a00b0022000808f54000600320038
:1051e0001c002000d0022000808f54000f003a00e5
:1051f0002c002000010037000006eb0061061600bd
:10520000fe0044001100780038119000820f500019
:1052100003003100b084fb008008780003003700f1
:105220000800780006010700800478007100220061
:105230008006eb0012003700e78f56000d003200a9
:105240007e01440012007800b8119000830f5000d6
:1052500003003100b084fb0000097800050037002e
:105260000800780081bf9f00f500070080047800e7
:105270008fb897008d06e800e88f56001d003200b9
:10528000090178000250a0005100fb00800f51007e
:10529000e9ff32000d007800e38f5600060032006f
:1052a000e88f560013003200e38f560017003600d7
:1052b0000e00e000ba003200b81090000100e000db
:1052c000020032007e0144001209e9000e00e000f5
:1052d00008003200050037000100e0000200320043
:1052e0007e0144001209e9000000e900e30f5000cc
:1052f000f9ff3a00e10f46009c003a006000b80058
:105300000200200003ff2f009f0037000101220050
:105310000d00e00013003200a1003700e28f5600bc
:105320000d0032007e01440012007800b811900098
:10533000830f500003003100b084fb0000097800a7
:10534000050037000800780081bf9f00bc000700ff
:10535000800478008fb897008d06e800e38f560030
:1053600006003200090178000250a0005100fb0045
:10537000800f5100e9ff3200890037007e014400b0
:105380009200780038109000808f500007003100a4
:1053900080c2b300314068000080fb000000ea00da
:1053a0004f00de0001097800070037000800780090
:1053b000a30007008082b20000f0a7000000ea000e
:1053c0000000ea004f00de00190020000004e000a9
:1053d00006003200381090000000e0006700320044
:1053e0007e044400180ce900640037007e0144008c
:1053f0009200780038109000808f50000300310038
:105400003180fb00010978000200370008007800b5
:105410008b00070001fd2f0080804000e98f5000c5
:105420000b003600f1fb2f0080804000f98f500008
:1054300007003600f1f92f0080804000f98f5000fe
:1054400003003600f1052000810f500002003a00f1
:105450008904e800e5ff370091022000810f500029
:1054600046003200381090000000e00002003200d8
:10547000fe0044009108e9000e00e00006003a003a
:105480000d0037000000e00002003200fe00440082
:105490009108e9008904e9000900e000f9ff3a00f9
:1054a00036003700381090000000e00002003200a3
:1054b0007e0044001008e9006001200060038900bc
:1054c0006022b8006033b800080078003700070099
:1054d0002300370000032000808f54001a003a0098
:1054e0007e0144009200780038109000808f5000b8
:1054f000030031003180fb00010978000200370011
:10550000080078004e0007000050a000810720002e
:10551000810f500007003a000e0278008c017800dd
:105520000b0178008a00780008007800dbf707009c
:1055300015003700381090000000e0000200320033
:105540007e0044001008e9008e0278000c0278000a
:105550000a01be000800be006afa07000a00370010
:105560006000b8006011b800070037006000b800a4
:105570000200200003ff2700030037006000b8008e
:105580000200200083ff27004f0778004f06be006f
:105590004f05be004f04be004f00b10000000600e2
:1055a0000d00e000bfff3a00caff3700889fbe0031
:1055b0008a9fbe004410980055109800661098000d
:1055c00077109800f0089000200490000104540027
:1055d000cfc4de00614db900081898001918980072
:1055e0002a1898003b189800e00f5200e08f5a00ec
:1055f000e00f5b00e08f5b000c00320000149000b5
:1056000001045400cfc4de00614db9000440e10044
:1056100005c8e10006d0e10007d8e100030034002e
:105620006002b00004884000020037008010900043
:10563000311098004f05be004f04be000000060068
:105640002800fa00889fbe008a1f780000047800b6
:10565000f80890002800900000805000081a900080
:10566000981a9000281b9000b81b9000cf80de0095
:105670000402400085824800068348008783480072
:1056800048109000d810900068119000f811900018
:10569000e00f5000e08f5800e00f5900e08f5900f4
:1056a000050032000020e10001a8e10002b0e100a5
:1056b00003b8e1000d003d0008007800d4b79f005a
:1056c000e5b79f00f6b79f0087bf9f0071000700f6
:1056d000800478005fb29700efb297007fb3970025
:1056e0008fbb97000900e00014003d00780890008f
:1056f0002801900000015100010320008880400033
